:030000000208648F
:10080000E4FBE4FAEA90087093F580D2A7C2A7EA65
:10081000C454F02482F582E43408F583E5822BF594
:1008200082E43583F583E493F580D2A6C2A67F02E5
:100830007E001208460ABA06CB7F647E0012084684
:100840000BBB10BE80BAD3EF9400EE940040147D31
:100850005A7C00ED1D70011CED4C70F7EF1F70E627
:100860001E80E322787FE4F6D8FD75810702080038
:10087000FEFDFBF7EFDF767938383F803F065B4FB0
:10088000666D3819293139393939393939393939B0
:100890003939090909090109090909090909090970
:1008A00009080909090909010909090909090909C1
:1008B00008090909090909090109090909090908B2
:1008C00009090909090909090901090909090809A1
:1008D00009090F0F0F0F0F0F0F0F070A0D0E0F0F44
:0208E0000F0FF8
:00000001FF
