:03000000020915DD
:0C091500787FE4F6D8FD75810802090126
:1008E100010204081020408000C0E0F0F8FCFEFF87
:1008F100C0F9A4B0999282F880908883C6A1868EAF
:10090100759850438920758DFD758BFDD28ED2AFC0
:04091100D2AC80FEE6
:03002300020800D0
:0D080000C0E0C083C082C0D075D000C00031
:10080D002098030208ABC298859908E5081208BB29
:10081D00085130085331085832085D3308623408E6
:10082D006735086C36087137087638087B390880CB
:10083D0041088542088A43088F4408944508994623
:10084D0000000851804B9008E280499008E38044F5
:10085D009008E4803F9008E5803A9008E680359056
:10086D0008E780309008E8802B9008E980269008F2
:10087D00EA80219008EB801C9008EC80179008ED21
:10088D0080129008EE800D9008EF80089008F0809F
:10089D00039008E1E493F4F590D299850899309985
:0308AD0002C299EB
:0B08B000D000D0D0D082D083D0E03246
:1008BB00D083D082F8E4937012740193700DA3A3CC
:1008CB0093F8740193F5828883E4737402936860E0
:0608DB00EFA3A3A380DFE0
:00000001FF
